:10000000E8EF02F00000000000EF00F00000000048
:0A0010000000000000000000F3D71C
:10001C00010E186E000E196E4E0E195C02E1200EC8
:10002C00185C31E2010E176ECC0E1724F66E070E1B
:10003C00F76E000EF722000EF86E000EF822090083
:10004C00F5CF81FF660E1724F66E080EF76E000EC4
:10005C00F722000EF86E000EF8220900F5CF82FF91
:10006C00040E0C6E1C0E0D6E0D2EFED70C2EFCD736
:10007C000000184A192A17509A0A02E0172AD4D7F6
:08008C00816A826AC9D71200E3
:10009400010E186E000E196E410E1A6E820E1B6E42
:1000A4001A50010A48E080B045D0010E176E000EC8
:1000B400195C02E1640E185C06E31A061B06010EC5
:1000C400186E000E196E1AC017F017501B5C30E33F
:1000D4009A0E1724F66E090EF76E000EF722000E24
:1000E400F86E000EF8220900F5CF00F0001C816EB6
:1000F4001C0E1724F66E0A0EF76E000EF722000E81
:10010400F86E000EF8220900F5CF00F0001C826E94
:10011400040E0C6E1C0E0D6E0D2EFED70C2EFCD78D
:100124000000184A192A17501B1802E0172ACDD7C5
:10013400816A826AB5D7010E186E000E196E130E0D
:10014400195C02E1880E185C39E280B036D0010EE9
:10015400176E010E176E9E0E1724F66E0A0EF76EBA
:10016400000EF722000EF86E000EF8220900F5CFFB
:1001740000F0001C816EDF0E1724F66E0A0EF76E77
:10018400000EF722000EF86E000EF8220900F5CFDB
:1001940000F0001C826E040E0C6E1C0E0D6E0D2EF3
:1001A400FED70C2EFCD70000184A192A1750410A12
:0E01B40002E0172AD0D7816A826AC1D71200F2
:1001C200010E186E000E196E4E0E195C02E1200E21
:1001D200185C31E2010E176EFE0E1724F66E050E44
:1001E200F76E000EF722000EF86E000EF8220900DC
:1001F200F5CF81FF000E1724F66E090EF76E000E82
:10020200F722000EF86E000EF8220900F5CF82FFE9
:10021200040E0C6E1C0E0D6E0D2EFED70C2EFCD78E
:100222000000184A192A17509A0A02E0172AD4D74E
:08023200816A826AC9D712003B
:10023A00010E186E000E196E750E195C02E1300E71
:10024A00185C31E2010E176E320E1724F66E070E95
:10025A00F76E000EF722000EF86E000EF822090063
:10026A00F5CF81FF980E1724F66E060EF76E000E74
:10027A00F722000EF86E000EF8220900F5CF82FF71
:10028A00040E0C6E1C0E0D6E0D2EFED70C2EFCD716
:10029A000000184A192A17509A0A02E0172AD4D7D6
:0802AA00816A826AC9D71200C3
:1002B200010E186E000E196E4E0E195C02E1200E30
:1002C200185C35E280B032D0010E176E010E176E47
:1002D200320E1724F66E070EF76E000EF722000E8E
:1002E200F86E000EF8220900F5CF81FF980E172450
:1002F200F66E060EF76E000EF722000EF86E000E76
:10030200F8220900F5CF82FF040E0C6E1C0E0D6E52
:100312000D2EFED70C2EFCD70000184A192A1750B2
:100322009A0A02E0172AD4D7816A826AC5D71200D4
:10033200010E186E000E196E270E195C02E1100EE6
:10034200185C35E280B032D0010E176E010E176EC6
:10035200FE0E1724F66E050EF76E000EF722000E43
:10036200F86E000EF8220900F5CF81FF000E172467
:10037200F66E090EF76E000EF722000EF86E000EF2
:10038200F8220900F5CF82FF040E0C6E1C0E0D6ED2
:100392000D2EFED70C2EFCD70000184A192A175032
:1003A2009A0A02E0172AD4D7816A826AC5D7120054
:1003B200010E186E000E196E010E1D6E800E1C6E5F
:1003C200800E166E010E156E1550070A51E080B0B0
:1003D2004ED0010E176E010E195C02E1FE0E185C82
:1003E20010E31D501D261D2A16C000F00032009E8B
:1003F20000C016F000501C26152A010E186E000EC1
:10040200196E010E176ECC0E1724F66E070EF76EDC
:10041200000EF722000EF86E000EF8220900F5CF4A
:1004220000F01C500014816E660E1724F66E080E42
:10043200F76E000EF722000EF86E000EF822090089
:10044200F5CF00F01D500014826E040E0C6E1C0ECF
:100452000D6E0D2EFED70C2EFCD70000184A192A5D
:1004620017509A0A02E0172ACED7816A826AACD75D
:02047200120076
:10047400290E0B6E960E0C6E7F0E0D6E0D2EFED792
:0A0484000C2EFCD70B2EFAD7120045
:10048E00010E186E000E196E010E1D6E800E1C6E82
:10049E00800E166E010E156E1550070A51E080B0D3
:1004AE004ED0010E176E010E195C02E1FE0E185CA5
:1004BE0010E31D501D261D2A16C000F00032009EAE
:1004CE0000C016F000501C26152A010E186E000EE4
:1004DE00196E010E176EFE0E1724F66E050EF76ED0
:1004EE00000EF722000EF86E000EF8220900F5CF6E
:1004FE0000F01C500014816E000E1724F66E090ECB
:10050E00F76E000EF722000EF86E000EF8220900AC
:10051E00F5CF00F01D500014826E040E0C6E1C0EF2
:10052E000D6E0D2EFED70C2EFCD70000184A192A80
:10053E0017509A0A02E0172ACED7816A826AACD780
:02054E00120099
:10055000010E186E000E196E270E195C02E1100EC6
:10056000185C35E280B032D0010E176E010E176EA6
:10057000CC0E1724F66E070EF76E000EF722000E53
:10058000F86E000EF8220900F5CF81FF660E1724E1
:10059000F66E080EF76E000EF722000EF86E000ED3
:1005A000F8220900F5CF82FF040E0C6E1C0E0D6EB2
:1005B0000D2EFED70C2EFCD70000184A192A175012
:1005C0009A0A02E0172AD4D7816A826AC5D7120034
:1005D000070EC16E010E926E816A8A6A936A946AEE
:1005E000826AF18E47DF46DFE4DEB2DF50DFA1DE54
:0E05F00051DD14DDE6DD5DDE20DEF6D7FFD73F
:1005FE00000018180000FF0101010100007F90901B
:10060E00907F00000000FF9191916E0000FF90908E
:10061E00906F0000BF00007E8185837F0000FE0189
:10062E000101FE0000FF919191810000FF909090DA
:10063E006F0000BF0000FF91919181000000001833
:10064E00180000FF0101010100007F9090907F00D3
:10065E00000000FF9191916E0000FF9090906F004E
:10066E0000BF00007E8185837F0000FE010101FE38
:10067E000000FF919191810000FF9090906F00001B
:0A068E00BF0000FF91919181000070
:10069800000000000000000000000000000000242E
:1006A800187E182400000000619191918600008056
:1006B80080FF80800000BF000043858991610000B1
:1006C800FF8181817E0000000024187E182400002C
:1006D8000000000000000000000000000000000012
:1006E80000000000000000000000000024187E1830
:1006F8002400000000619191918600008080FF80B5
:10070800800000BF000043858991610000FF81815E
:10071800817E0000000024187E18240000000000DC
:0A07280000000000000000000000C7
:10073200000000000000000000FF90908080000098
:100742007E8181817E0000FF9090906F0000FF40CB
:10075200303040FF00007F9090907F00008080FF4B
:1007620080800000BF00007E8181817E0000FF60EA
:100772001806FF000000000000000000000000005A
:10078200000000000000FF9090808000007E8181C8
:10079200817E0000FF9090906F0000FF403030405B
:1007A200FF00007F9090907F00008080FF8080009B
:1007B20000BF00007E8181817E0000FF601806FF7D
:0A07C200000000000000000000002D
:1007CC00000024187E18240000000024187E182431
:1007DC000000000024187E182400000000FF010116
:1007EC0001010000C0201F20C000007E81818142D9
:1007FC000000FF919191810000FF91919181000087
:10080C0000000000000000000000000000000024B8
:10081C00187E18240000000024187E182400000004
:10082C000024187E182400000000FF0101010100C3
:10083C0000C0201F20C000007E818181420000FF8B
:10084C00919191810000FF91919181000000000035
:0A085C000000000000000000000092
:1008660000000018180000FF9090906000007E8144
:1008760081817E0000FF010101010000E0101F10D0
:10088600E00000FC020102FC00007F9090907F00D7
:1008960000FF010101010000FF919191810000FF1D
:1008A600601806FF00008080FF80800000000000C6
:1008B60018180000FF9090906000007E8181817E74
:1008C6000000FF010101010000E0101F10E0000020
:1008D600FC020102FC00007F9090907F0000FF0167
:1008E6000101010000FF919191810000FF6018064F
:0A08F600FF00008080FF80800000FA
:100900000000000024187E1824000000008080FFF2
:1009100080800000FF101010FF0000BF00007E81EB
:1009200081817E0000FF601806FF0000FC020102CA
:10093000FC0000BF0000FF010101010000FF0101F8
:1009400001010000FF919191810000000000000072
:100950000024187E1824000000008080FF808000A2
:1009600000FF101010FF0000BF00007E8181817E1B
:100970000000FF601806FF0000FC020102FC0000FE
:10098000BF0000FF010101010000FF0101010100A2
:0A09900000FF91919181000000002A
:10099A0000000000000000007E0202020200006067
:1009AA00100E106000003C4242422400007E525267
:1009BA00424200007E52524242000000007E020281
:1009CA00020200003E4848483E00000000000000C5
:1009DA00000000000000000000000000000000000D
:1009EA0000000000000000000000000000000000FD
:1009FA0000000000000000000000000000000000ED
:100A0A0000000000000000000000000000000000DC
:020A1A000000DA
:100A1C0000007E5252522C00007E4848483600009E
:100A2C0042427E424200003C424A463A00007C026E
:100A3C0002027C00007E5252424200007E4848482E
:100A4C0036000042427E424200007E525242420038
:100A5C00000000000000000000000000000000008A
:100A6C00000000000000000000000000000000007A
:100A7C00000000000000000000000000000000006A
:100A8C00000000000000000000000000000000005A
:020A9C00000058
:100A9E0000000000000000007E0202020200006062
:100AAE00100E106000003C4242422400007E525262
:100ABE00424200007E52524242000000007E02027C
:100ACE00020200003E4848483E00000000000000C0
:010ADE000017
:100ADF0000007E5252522C00007E484848360000DB
:100AEF0042427E424200003C424A463A00007C02AB
:100AFF0002027C00007E5252424200007E4848486B
:100B0F0036000042427E424200007E525242420074
:010B1F0000D5
:020000040030CA
:0D000100260F0EFFFF81FF0FC00FE00F4024
:00000001FF
